:020000040800F2
:10000000580600209D0100086B0E0008E70D00084F
:10001000690E0008A9020008D111000800000000C4
:100020000000000000000000000000006F0E00084B
:10003000AB020008000000006D0E0008710E000801
:10004000B7010008B7010008B7010008B7010008B0
:10005000B7010008B7010008B7010008B7010008A0
:10006000B7010008B7010008B7010008B701000890
:10007000B7010008B7010008B7010008B701000880
:10008000B7010008B7010008B7010008B701000870
:10009000B7010008B7010008B7010008B701000860
:1000A000B7010008B7010008B7010008B701000850
:1000B000B7010008B7010008B7010008B701000840
:1000C000B7010008B7010008B7010008B701000830
:1000D000B7010008B7010008C5110008B701000802
:1000E000B7010008B7010008B7010008B701000810
:1000F000B7010008B7010008B7010008B701000800
:10010000B7010008B7010008B7010008B7010008EF
:10011000B7010008B7010008B7010008B7010008DF
:10012000B7010008B7010008B7010008B7010008CF
:10013000B7010008B7010008B7010008B7010008BF
:10014000B7010008B7010008B7010008B7010008AF
:10015000B7010008B7010008B7010008B70100089F
:10016000B7010008B7010008B7010008B70100088F
:10017000B7010008B7010008B7010008000000003F
:10018000B7010008B7010008DFF80CD000F07AF8DA
:100190000048004711120008580600200648804712
:1001A00006480047FEE7FEE7FEE7FEE7FEE7FEE75C
:1001B000FEE7FEE7FEE7FEE7F50E0008890100080E
:1001C0002DE9F05F0546002092469B46884606468C
:1001D000814640241BE0284641464746224600F01F
:1001E00041F853465A46C01A914110D31146184659
:1001F000224600F028F82D1A67EB01084F462246E8
:100200000120002100F01FF817EB00094E41201ECD
:10021000A4F10104DFDC484631462A464346BDE8E6
:10022000F09FD2B201E000F8012B491EFBD27047CB
:100230000022F6E710B513460A4604461946FFF7B2
:10024000F0FF204610BD202A04DB203A00FA02F11C
:10025000002070479140C2F1200320FA03F31943B4
:1002600090407047202A04DB203A21FA02F0002156
:10027000704721FA02F3D040C2F1200291400843B6
:1002800019467047064C074D06E0E06840F0010350
:1002900094E8070098471034AC42F6D3FFF778FF94
:1002A00084130008A4130008FEE7704790F8351087
:1002B000022903D08021416501207047052180F883
:1002C00035100068016821F00101016000207047CD
:1002D0002DE9F84F00224FF0010803254FF00F0ED3
:1002E0000B6808FA02F42340A3426ED14E68012E37
:1002F00005D0022E03D0112E01D0122E12D1866805
:100300004FEA420C05FA0CF7BE43CF6807FA0CF728
:10031000374387604668A6430C79C4F300149440C1
:1003200034434460C668570005FA07FC8C6826EA27
:100330000C06BC403443C4604C68022C01D0122C23
:1003400013D1D40800EB8404A346D4F820905407BA
:100350004FEAD46A0EFA0AF629EA06090E6906FA85
:100360000AF646EA0906CBF8206006680C7926EA08
:100370000C0604F00304BC40344304604C68E40001
:1003800065D5364C266846F480462660246822F0FF
:10039000030604F480440094314C3444A446D4F859
:1003A00008489607370F0EFA07F6B4432D4EB042B1
:1003B00001D1002624E02C4EB04201D101261FE0DD
:1003C0002A4EB04202D102261AE040E0284EB04246
:1003D00001D1032614E0274EB04201D104260FE0DC
:1003E000254EB04201D105260AE0244EB04201D18B
:1003F000062605E0224EB04201D1072600E008267D
:10040000BE402643CCF808681E4E34684F689C43B3
:10041000FF0300D51C4334601A4C241D26684F6826
:100420009E43BF0300D51E432660164E083634682F
:100430004F689C43FF0200D51C433460114E0C36BC
:1004400034684F689C43BF0200D51C433460521C83
:10045000102AFFF445AFBDE8F88F00004438024091
:100460000030014000000240000402400008024049
:10047000000C02400010024000140240001802402C
:10048000001C0240003C01400069084000D00120EF
:1004900070470AB1816170470904FBE70148806831
:1004A0007047000000000020024881680278114473
:1004B00081607047000000200B4810B5016841F4CE
:1004C00000710160016841F480610160016841F4DC
:1004D00080710160032000F06FF8002000F006F842
:1004E00000F024F8002010BD003C024070B50D4D16
:1004F00004464FF47A712878B1FBF0F00A49096894
:10050000B1FBF0F000F002FB48B9102C07D200223A
:100510002146501E00F030F800206C6070BD0120B4
:1005200070BD0000000000200C0000200A4808B543
:10053000016841F480410160006800F4804000904F
:100540000548001F016841F080510160006800F01B
:100550008050009008BD000044380240002809DBAC
:1005600000F01F02012191404009800000F1E020CD
:10057000C0F8001170470000F0B40E4B1B680C4629
:10058000C3F30223C3F10705042D00D90425191D67
:10059000072901D2002300E0DB1E012606FA05F13F
:1005A000491E214099409E40761E16403143F0BCC2
:1005B00000F00FBE0CED00E0064900F007020868ED
:1005C0004FF6FF03184040EA0220034A1043086038
:1005D000704700000CED00E00000FA052DE9F0473F
:1005E0000E46050065D0DFF81481D8F80000F7B298
:1005F00000F00F00B04207D288F80070D8F8000071
:1006000000F00F00B04254D128683D4C810712D54C
:10061000400703D5206840F4E050206028780007A8
:1006200003D5206840F4604020602068A96820F06D
:10063000F000084320602878C0072DD03049686852
:100640000839012812D0022813D0032811D00968D4
:10065000890700292DDA216821F003010143216077
:10066000FFF71CFF814641F2883A0EE009688903D2
:10067000EFE709688901ECE7FFF710FFA0EB09013C
:10068000514502D90320BDE8F0872068696800F071
:100690000C00B0EB810FEFD1D8F80010404601F00C
:1006A0000F01B14207D90770006800F00F00B04297
:1006B00001D00120E7E72878400705D52068E968E0
:1006C00020F4E050084320602878000706D5206811
:1006D000296920F4604040EAC100206000F038F849
:1006E0002168084AC1F30311515CC84006490860FB
:1006F00006480068FFF7FAFE0020C4E7003C02400D
:10070000083802406C1300080C0000200400002090
:100710000448054900680968044AC1F38221515C14
:10072000C84070470C000020083802407C130008C5
:100730000448054900680968044AC1F34231515C24
:10074000C84070470C000020083802407C130008A5
:10075000154810B5006810F00C02144813D0411071
:10076000042A0FD0082A0ED10F4C241F22682368B8
:1007700002F03F025B0207D52068C0F38810A0FB9F
:10078000010106E0084610BD2168C1F38811A1FBF4
:1007900000010023FFF714FD2168C1F30141491C4A
:1007A0004900B0FBF1F010BD083802400024F4000D
:1007B0002DE9F84F04006ED02078DFF83C93C00795
:1007C000A9F104054AD009F104000168C1F38101CF
:1007D000012908D00068C0F3810002280AD1D9F8A5
:1007E0000000400206D52868800337D560680028DD
:1007F000E1D033E06068B0F5803F10D0B0F5A02FB5
:10080000286810D020F480302860286820F48020E8
:1008100028606068A8B1FFF741FE06460DE0286831
:1008200040F48030F4E740F480202860F7E700BF10
:10083000FFF734FE801B642873D828688003F7D53F
:100840000CE0FFF72BFE064605E000BFFFF726FE93
:10085000801B6428F0D828688003F7D42078DFF85C
:100860009C8280074FF0000A3ED5A348001D016816
:1008700011F00C0F08D00068C0F3810002280BD1E2
:10088000D9F80000400207D42868800716D5E06830
:10089000012800D112E02BE1E068B8B10120C8F8CE
:1008A0000000FFF7FBFD064605E000BFFFF7F6FD81
:1008B000801B0228C0D828688007F7D528682169DE
:1008C00020F0F80040EAC10028600DE0C8F800A060
:1008D000FFF7E4FD064604E0FFF7E0FD801B022879
:1008E0001FD828688007F7D42078000722D5824EC9
:1008F00083486169703671B101210160FFF7CEFD57
:10090000074604E0FFF7CAFDC01B022809D830687B
:100910008007F7D50EE0C0F800A0FFF7BFFD07463F
:1009200005E082E0FFF7BAFDC01B02287DD83068E1
:100930008007F7D42078400768D5DFF8BCB10027DE
:100940000BF13C0BDBF80000C0000BD4DBF800100F
:1009500041F08051CBF80010DBF80000012700F0D7
:1009600080500090674E3068C00510D4306840F465
:1009700080703060FFF792FD009005E0FFF78EFD7C
:100980000099401A022850D83068C005F6D55A4E52
:10099000A0686C3601280FD00528306810D020F0F0
:1009A00001003060306820F004003060A068B8B109
:1009B000FFF774FD00900FE0306840F00100F4E7AD
:1009C00040F004003060F7E7FFF768FD0099411A36
:1009D00041F28830814266D830688007F4D50EE055
:1009E000FFF75CFD009007E0FFF758FD0099411A02
:1009F00041F28830814256D830688007F4D42FB154
:100A0000DBF8001021F08051CBF80010A069C8B3CA
:100A10003949091D0968C1F3810102294AD0022818
:100A2000504607D0C8F8600000E03CE0FFF736FD14
:100A300004463BE04746C8F86000FFF72FFD064636
:100A400005E000BFFFF72AFD801B02282BD828688D
:100A50008001F7D4D4E907010843A16A2A4A49086A
:100A600002EB0141626A41EA8211084394F82C10BA
:100A700040EA0161C9F8001001203866FFF70EFD59
:100A8000044606E036E000BFFFF708FD001B022821
:100A900009D828688001F7D52CE000BFFFF7FEFCDD
:100AA000001B022802D90320BDE8F88F28688001C6
:100AB000F4D41FE00128F7D0D9F80000E26900F46F
:100AC0008001914214D1226A00F03F0191420FD17E
:100AD00047F6C071626A0140914209D1A26A00F4EE
:100AE0004031914204D1E16A00F07060884201D047
:100AF0000120D9E70020D7E7043802400000474230
:100B0000800E4742007000400000FFFF10B5401EFD
:100B1000B0F1807F01D3012010BD4FF0E02460616F
:100B20000F21601700F055FB0020A0610720206115
:100B3000002010BD7047000070B5026804461068C0
:100B4000D168536910F00F0F52D003F0010501F482
:100B500090762E435FD0C20705D0CA0503D5E26B5D
:100B600042F00102E263420705D5DA0703D0E26BE7
:100B700042F00202E263820705D5DA0703D0E26B96
:100B800042F00402E263020707D501F020022A4383
:100B900003D0E26B42F00802E263E26B002A33D03A
:100BA000800604D5880602D5204600F0C7F92068E3
:100BB0004069E16BC0F38010090700D428B32046D8
:100BC00000F0AEF92068416949061AD5416921F063
:100BD00040014161606BA0B11B490165606BFFF78B
:100BE00065FB002810D0606B016DBDE870400847C0
:100BF000830610D58B060ED52046BDE8704000F068
:100C00009DB92046FFF796FF70BD2046FFF792FF83
:100C10000020E06370BD030606D50B0604D5204610
:100C2000BDE8704000F06ABA4006F3D54806F1D539
:100C3000D168204621F04001D160202184F839108C
:100C400000F0D0F870BD0000110F000870B504006E
:100C500004D094F83900002510B106E0012070BDE1
:100C600084F83850204600F023F8242084F8390016
:100C70002068C16821F40051C160204600F0AAF943
:100C80002068016921F4904101612068416921F0E7
:100C90002A0141612068C16841F40051C160E563E7
:100CA000202084F8390084F83A00002070BD00004C
:100CB00010B586B0044614216846FFF7B9FA174903
:100CC0002068884228D116480021026842F4003288
:100CD0000260006800F40030059011481038026886
:100CE00042F001020260006800F0010005900C2053
:100CF00000900220CDE90101032003900720049019
:100D000069460848FFF7E4FA002211462620FFF75B
:100D100033FC2620FFF722FC06B010BD0044004043
:100D2000403802400000024070472DE9F843044675
:100D300090F839001F4616460D46202850D1B5B10F
:100D4000AEB194F8380001284AD0012084F8380068
:100D50004FF00008C4F83C80212084F83900FFF7E8
:100D60009DFBA6848146E68484F8388026E0012035
:100D7000BDE8F883E08C401EE084A0684B46B0F5E7
:100D8000805F4FF000024FF080012046009703D0B3
:100D900000F0E5F9E8B90DE000F0E1F9C8B92888FC
:100DA0002168C0F308004860206908B16D1C05E0A7
:100DB000AD1C03E0216815F8010B4860E08C0028A9
:100DC000D8D14B46002240212046009700F0C7F9B9
:100DD00008B10320CCE7202084F839000020C7E7C1
:100DE0000220C5E77047FEE7F0B587B014216846DA
:100DF000FFF71EFA19480024016841F080010160E4
:100E0000016801F080010591016841F00101016074
:100E1000016801F001010591016841F008010160DC
:100E200000680F4F00F008004FF470460590002254
:100E300031463846FFF72DFB0125CDE900546946C0
:100E400008480294FFF744FA0096CDE90154694638
:100E500038460394FFF73CFA07B0F0BD3038024043
:100E6000000C024000000240FEE7704770477047E8
:100E7000FFF71ABB30B593B030216846FFF7D8F9B9
:100E800014210CA8FFF7D4F918480025016841F097
:100E900080510160006800F0805011901448016892
:100EA00041F4804101600068022400F48040119008
:100EB00001200090000401908001CDE9064008AABD
:100EC0000420322182E813000B906846FFF770FC83
:100ED0000CA90F2081E83100E002CDE90F050121C6
:100EE0000CA8FFF77BFB13B030BD00004038024078
:100EF000007000400548016841F470010160034939
:100F00004FF00060803908607047000088ED00E015
:100F100010B5806B0021C185C184FFF70BFE10BDA9
:100F20000168CA6822F49072CA6001684A6922F0B6
:100F300001024A61202180F83A10704710B590F8FC
:100F40003A10222901D0022010BD8168B1F5805FDE
:100F500011D00169002901681FD0496801F07F03A1
:100F6000816A4A1C82620B70C18D491E0904090CFA
:100F7000C18518D02BE00269816A002A0268526894
:100F800005D0D2B20A80816A491C8162ECE7C2F3C3
:100F900008020A80816A891CF7E74A68816A4B1C4B
:100FA00083620A70E0E70168CA6822F02002CA6022
:100FB0000168CA6822F48072CA6001684A6922F036
:100FC00001024A61202180F83A10FFF7ADFE0020AF
:100FD00010BD00002DE9F041044600680169E26897
:100FE00021F44051114301612169A068E26908437D
:100FF0006169114308432168CA6849F20C639A4346
:101000000243CA6020684169A26921F4407111431A
:101010004161E069192764253226B0F5004F354A51
:10102000354920684FF0000806D0884201D0904230
:1010300036D1FFF77DFB35E0884201D0904202D1E6
:10104000FFF776FB01E0FFF763FB61684A18A0FB3E
:10105000070148EB0803FFF7B3F80146B0FBF5F0D2
:101060000201B1FBF5F06FF01803584301EB80006B
:1010700006EBC000B0FBF5F000F0F80002EB400218
:10108000B1FBF5F0584301EB800006EBC000B0FB6C
:10109000F5F000F00700216810448860BDE8F08199
:1010A000FFF736FB61688B0F8A00A0FB0701FFF793
:1010B00087F80146B0FBF5F06FF01802504301EBE2
:1010C000800006EB0010B0FBF5F000F0F002B1FB81
:1010D000F5F002EB0012B1FBF5F06FF01803584386
:1010E00001EB800006EB0010B0FBF5F000F00F0004
:1010F000D1E70000001401400010014090F83910C1
:10110000212901D0022070478168B1F5805F016A12
:101110000BD04A1C0262026809785160C18C491EDA
:101120000904090CC1840ED017E009880268C1F3D4
:101130000801516001690029016A02D0491C01625D
:10114000ECE7891CFBE70168CA6822F08002CA60EC
:101150000068C16841F04001C160002070472DE97E
:10116000F041984617460E460446069D1DE0681C51
:101170001BD02DB1FFF792F9A0EB0800A84214D9BB
:101180002068C16821F4D071C1602068416921F0F4
:1011900001014161202084F8390084F83A000020E0
:1011A00084F838000320BDE8F0812068006836EA42
:1011B000000004D00020B842D9D00020F3E701207D
:1011C000F9E700000148FFF7B7BC00001800002055
:1011D000FEE70907090E002804DB00F1E02080F893
:1011E0000014704700F00F0000F1E02080F8141D9B
:1011F000704702E008C8121F08C1002AFAD17047E0
:101200007047002001E001C1121F002AFBD1704786
:101210001FB58A25002428465FF00A06B0FBF6F0C9
:10122000641CE4B20028F9D1204600F063F80146BE
:10123000601E08E0B5FBF6F206FB1252B5FBF6F5B0
:1012400030320A54401E40B20028F3DA254B0DCB51
:101250008DE80D00222300206A4604E00D5C16187C
:10126000401C357240B2A042F8DB10190372FF2017
:101270008DF80C00FFF720F9FFF7FCFDFFF7B4FD38
:101280001A4819490C2201604FF41651416000219F
:101290008160C160C0E904128161C161FFF7D6FCC1
:1012A000134D4FF6FF7401212846FFF7EDF8012892
:1012B000F9D123460C2269460C48FFF736FD234638
:1012C000012203A90948FFF730FD2346012203A9A3
:1012D0000648FFF72AFD2346012203A90348FFF72A
:1012E00024FDE0E7601300080044004018000020DF
:1012F00000000240F0B50B30154D20F0070100242E
:10130000144A0FE003688B420BD38B4205D95E1A57
:1013100043184768C3E9006700E04368136002C0F0
:1013200004E0021D10680028ECD12046002802D1FC
:10133000286808B10020F0BD064A07481060074A37
:10134000121A22F00702C0E9002401202860D7E722
:1013500014000020100000205C0000205802002033
:1013600074362E7478743D220000000000000000E6
:101370000000000001020304060708090000000045
:1013800001020304A413000800000020180000005C
:10139000F2110008BC1300081800002040060000ED
:1013A0000212000801000000100000000000000010
:0C13B0000024F400000000000000000019
:040000050800018965
:00000001FF
